:020000040800F2
:10000000C004002071090008E9080008EB08000896
:1000100000000000000000000000000000000000E0
:10002000000000000000000000000000ED080008D3
:100030000000000000000000EF080008F1080008C0
:10004000130800089F080008330900083F0900084A
:10005000810900088309000885090008870900084C
:1000600000000000890900088B0900088D090008BC
:100070008F090008910900089309000895090008F4
:1000800097090008990900089B090008F30800086F
:10009000000000009D0900089F090008A109000850
:1000A000A3090008A5090008A7090008A909000874
:1000B000AB090008AD0900080000000000000000C6
:1000C00030B55F480168C907FCD5042182685D4BE3
:1000D00013400B43836002680A40FCD0046C5A4A08
:1000E000936A5D07ED0E55192405240D6C605B1CA9
:1000F0009362016030BD10B50020002200235249F8
:100100009C000C19646812195B1C082BF8DB931017
:100110005B0F9A18D2104D4B9A4200DB01200870F9
:1001200010BDF8B54A480124416821434160416847
:10013000214000910099250701682943016000686A
:10014000284000900098434801680902090AC0222B
:1001500012060A43026000F026F800F09CF800F056
:10016000D5F800F014F93C480121C9430161C16888
:100170002143C16001682143016000F09EF900F055
:10018000B5F92F4E2F4FB06838400543B5600120B8
:1001900000F0E1F93460B06807403C43B46000F01F
:1001A0009DF98047FBE710B52C480168820D0A4392
:1001B000026001684905FCD50168294A0A4080218E
:1001C0008901114301608168264A0A408260816882
:1001D000072291438160816838220A40FBD18168FF
:1001E000214A0A408260214C200000F0A7F920003B
:1001F00000F0C4F910BD10B51D484021124C626AD0
:10020000521E07D0921E012A09D91A4BD21A072A68
:1002100007D90CE02278002A09D0016007E00161CB
:1002200005E0154800F04BF9144800F048F9606A01
:10023000401CFA21C90000F0A9F9616210BD00005C
:1002400000240140E8FFFF7F00000020510A000069
:100250003C10024020ED00E0002000400010024071
:10026000FFC7FFFFFFF0FFFFFF8FFFFF40420F00C0
:1002700018040050C5070000C1000008F70000087E
:1002800081B020490A6802430A600968084000906A
:10029000009801B07047F8B586B018220021684672
:1002A00000F0A3F90220FFF7EBFF0120FFF7E8FFC2
:1002B0008020154988624701A021C9058F62402628
:1002C00011498E6200900124019400250295039447
:1002D000049569460C4800F0B1F900970194029426
:1002E000039504956946A020C00500F0A7F9009683
:1002F00001940295039504956946034800F09EF920
:1003000007B0F0BD341002400004005010B586B0B4
:100310001422002101A800F068F980200002114990
:100320000A6802430A6009680840009000980E4875
:1003300001680902090A0160802000030B49086076
:100340000B486A4690800021029103900491094C69
:1003500001A9200000F0C4F9206880210143216038
:1003600006B010BD4010024010E400E000E100E0E3
:10037000E70300000020004010B504231940436942
:1003800007248C40A3438A401A43426110BD30B514
:1003900091B010220021684600F027F918220021B0
:1003A00005A800F022F9182200210BA800F01DF981
:1003B000394880214903C2680A43C260C2681140BB
:1003C00004910499012102680A4302600068084010
:1003D000049004980B9103200C9000250F950BA915
:1003E000A020C00500F02AF9C02000060090019569
:1003F00002950395294C6946200000F0B7F9E068A2
:10040000802189030143E160600C21680140FCD038
:1004100020600595F0210691089009950A9505A997
:10042000200000F0BDF92069012188432061206986
:100430001B4901402161072200212000FFF79CFF9A
:10044000072218492000FFF797FF606804218843BE
:1004500060606068082188436060A06812490140BC
:10046000802040050843A06010480068104900F053
:10047000A1F8142148430A2100F09CF8002800E06C
:10048000401EFDD1A06A0F218843A062606909491E
:100490000140616111B030BD3410024000240140C0
:1004A000FFFFFFDF04FFFF07E8FFFF7F2C000020B6
:1004B000400D0300FFFEFFFF70471D4817E01C4979
:1004C0000A68521CD3101B0F9B181B111B01D21A58
:1004D0004B689A4201D1012070470CE014494A68E8
:1004E0000868904201D11348704714E01248002177
:1004F0000160416070470A68531C0B6092008A18C3
:1005000090600868C210120F121812111201801A9E
:10051000086000207047900008188068521CD310B3
:100520001B0F9B181B111B01D21A4A607047000059
:1005300030000020B90400087800002010B5114CEC
:10054000FA21890000F036F8401E60600020A060AB
:100550000520206010BD81B00A490A680092009A07
:100560000022D243904202D0401C002804D00A68E6
:10057000D203FCD5401EF8E701B07047024908607D
:100580007047000010E000E02C000020CA0F00D0EF
:10059000494203105A400DD004B500D3404200F048
:1005A00009F8009AD20701D34942124200D54042CD
:1005B00004BD0000094214D088420FD30122030C6D
:1005C00001D100041204002300185B418B4200D3C8
:1005D0005B1A5241F8D31900100070470100002047
:1005E000704708B500F014F908BD10B50400080004
:1005F00011000200200000F00DF9200010BD30B500
:1006000001684118446862088A188368E40704D5C1
:100610004C461B1901E0641C09D1914203D00C78AF
:1006200064B2491C01E00C3030BD0D78491C1D70CE
:100630005B1C002CEFD4641EF7D5EEE7F8B5040080
:100640000800002146E02E0A3500754375437543C6
:10065000666A2F017F1BBE43009F7D433543656261
:1006600031E001258D40154033D02A006A43530004
:100670009E18F3434668012E01D0022E0BD1A668C6
:100680001E40876857433743A7606668AE43C76814
:100690006F4337436760E6681E4007695743374337
:1006A000E7604668022E0ED146690096FF2DCAD833
:1006B00016006E436E43256A3701BF1BBD43009F82
:1006C0007E432E43266225682B4045686A431A43C1
:1006D0002260491C02681300CB40C2D10020F2BD49
:1006E000F0B506681E4A1C4C8025ED05194B984252
:1006F00003D0A84201D0A04208D17027BE433700E2
:100700004E683E4398420BD0A84209D0A04207D081
:10071000124CA04204D0904202D0134CA04203D10C
:10072000104C3440CE68264306608C68C4620C8846
:100730008462984204D0904202D00B4A904201D188
:1007400009690163416901220A4342610020F0BD49
:1007500000000000002C0140000400400020004088
:1007600000440140FFFCFFFF0048014010B50200BB
:100770000020946801231C4010D1D368224C1C40F7
:100780004B6823438C681C43CB682343D3601369B5
:100790009B009B0809681943116110BD012010BD21
:1007A00030B502000020D368D368012394681C4050
:1007B00028D1164C5B05D5681D4002D04D68F02D40
:1007C0000DD0D5682C400D6825438C682C43CD682E
:1007D00025430C692C434D692543D5600AE0D56853
:1007E0002C400D682543CC682C430D6925434C698A
:1007F0002C43D460D468234005D0936A49681943D8
:10080000916230BD012030BDC73FFFFF3CC2FEFFFB
:100810007047FEE71206130A1A43130C1A4300BF6F
:10082000094205D0830705D00270401C491EF9D14A
:10083000704700001300103906D330B414001500BF
:1008400010393CC0FCD230BC490700D30CC000D5E5
:1008500004C0890002D30280801C002900D50270E8
:10086000704770B40123002413E00168001D194291
:1008700002D04D466918491E0C60091D121F042A3A
:10088000FAD20D00960701D50C80AD1C1A4000D09D
:100890002C700268001D002AE7D170BC7047FEE78B
:1008A00010B5074979441831064C7C44163404E0ED
:1008B000081D0A68891888470100A142F8D110BDB7
:1008C00008000000240000009BFFFFFF90000000D4
:1008D000300000200000000027FDFFFFD6000000D0
:1008E0001600000000000020FEE7FEE7704770479A
:1008F000704780B5FFF77FFC0120C04301490860C5
:1009000001BD00001020004000F00DF8002801D0CB
:10091000FFF7C6FF00BF00BF002000BF00BFFFF70A
:1009200000FC00F002F80120704780B500F002F8EA
:1009300001BDFEE70746384600F002F8FBE7FEE798
:1009400080B500BF00BF024A11001820ABBEFBE714
:10095000260002000548014603B4684680F3098872
:1009600000BF00BF00BF00BFFFF7CEFFA5EDF5FE43
:100970000148804701480047B109000855090008AF
:10098000FEE7FEE7FEE7FEE7FEE7FEE7FEE7FEE73F
:10099000FEE7FEE7FEE7FEE7FEE7FEE7FEE7FEE72F
:1009A000FEE7FEE7FEE7FEE7FEE7FEE7FEE7000004
:0D09B0007047DC00016C07F9000224F40020
:040000050800095591
:00000001FF
