:020000040800F2
:10000000C8040020451100087D0F00087F0F00087C
:1000100000000000000000000000000000000000E0
:10002000000000000000000000000000810F000838
:100030000000000000000000830F0008850F00088A
:10004000170D0008470E00080711000813110008DB
:100050005511000857110008591100085B110008DC
:10006000000000005D1100085F1100086111000828
:100070006311000865110008870F00086711000868
:10008000691100086B1100086D110008A30F00082A
:10009000000000006F1100087111000873110008C2
:1000A000751100087711000879110008C50F0008C4
:1000B0007B1100087D110008000000000000000016
:1000C00010B403681D4A904206D08024E405A04283
:1000D00002D01B4CA0420AD17024A3431C004B68E1
:1000E000234390420FD08024E405A0420BD0144C4F
:1000F000A04208D0134CA04205D0134CA04202D01D
:10010000B04CA04203D1114C1C40CB682343036088
:100110008B68C3620B888362904205D00A4A904282
:1001200002D0A84A904201D10969016341690122C4
:100130000A434261002010BC70470000002C0140BF
:10014000000400400020004000440140FFFCFFFF8D
:1001500070B40B0001215B1E11D00F3B44D0F03B6B
:100160007BD0F02424011B1B00D1ADE024011B1B1C
:1001700000D1D2E024011B1B00D1F6E01EE1016A90
:10018000012399430162046A416883698E4D1D40D1
:1001900013682B430225AC43156925430124A5436D
:1001A00054682C43894DA84205D0894DA84202D0FD
:1001B000844DA84212D10825AC435569AD002543B2
:1001C0000424A5439468A4002C43824D0D409169FA
:1001D0002943814D0D40D169490029434160836124
:1001E000D16841630462E8E01021C943036A0B400F
:1001F0000362046A43688669784D354016683602A2
:100200002E432025AC4315692D0125432940546810
:1002100024010C436D49884205D06D49884202D0C3
:100220006849884213D180218C4351698901214357
:100230004024A1439468A4010C436949194093697F
:100240009B000B4367491940D369DB000B434360B4
:100250008661D16881630462AFE05E49036A0B4046
:100260000362046A4368C569574E2E4015683543DA
:10027000594E264014692402344321405468240214
:100280000C435249884205D05149884202D04D4919
:10029000884213D1534921405469A4020C43504968
:1002A00021409468A4020C434F49194093691B01F3
:1002B0000B434E491940D3695B010B434360C56151
:1002C000D168C163046278E04749036A0B40036266
:1002D000056A4368C469414E2640146824023443C9
:1002E000424E2E4015692D033543294055682D0394
:1002F0000D433649884205D03549884202D03149FC
:10030000884204D13A49194093699B010B434360E9
:10031000C461D168016405624FE03649036A0B404D
:100320000362046A436D344D1D4013682B43334D03
:100330002540146926042E430E4054682404344397
:10034000224DA84205D0224DA84202D01D4DA84200
:1003500005D14568294095692D020D4345604365E7
:10036000D168826D8165046227E02549036A0B40EC
:100370000362036A446D234D2540146824022C4314
:10038000214D1D4013691B052B43194053681B0564
:100390000B430E49884205D00D49884202D00949D5
:1003A000884206D14168344D0D4091698902294344
:1003B00041604465D168C16503620021080070BCDA
:1003C00070470000004801408CFFFEFF002C0140F8
:1003D00000440140FFFEFFFFFFFDFFFFFF8CFFFE1B
:1003E000FFFBFFFFFFF7FFFFFFEFFFFFFFDFFFFF59
:1003F000FFBFFFFFFFFFFEFF8FFFFEFFFFFFFDFFC1
:10040000FFFFEFFFFF8FFFFEFFFFDFFF0A7B8B6821
:1004100013431A4A1A404B681343194A1A400B688F
:100420001343184A1A40CB891A43174B13400A69E1
:100430001A43164B1340CA6A1A43154B13404A69B4
:100440001A43144B13408A691A43134B98420FD135
:10045000124B13404A6A1A43114B1340CA691A439C
:10046000104B13400A6A1A430F4B13408A6A1A430F
:100470004264002070470000FFFFFBFFFFFBFFFF0F
:10048000FFF7FFFFFFEFFFFFFFDFFFFFFFBFFFFFF4
:10049000FFFFF0FFFFFFFFEF002C0140FFFF0FFF0A
:1004A000FFFFFFFEFFFFFFFDFFFFFFDF70B507242B
:1004B000964D2878662836D1687830389449484374
:1004C000A9783039934A51434018E9783039FA22F3
:1004D0009200514340182979303964225143401821
:1004E000697930398A00511849004018A9793039A2
:1004F00046188948864201D3002402E0652E00D2C6
:10050000864C8748611C00F02DF9310000F02AF973
:1005100084490C6048606A6A521E2A620022CA60DE
:100520004008886170BD64280AD16878312802D1FA
:10053000802040010AE0302840D1802040010BE0BB
:1005400065280CD16878312803D18020764908616C
:1005500070BD302832D180207349086070BD70288A
:100560002CD16878303871494843A9783039704ABD
:1005700051434018E97830396E4A5143401829797F
:100580003039634A5143401869793039614A5143DF
:100590004018A9793039FA22920051434018E9797C
:1005A0003039642251434018297A30398A00511871
:1005B00049004018697A30394018686270BD1CB52E
:1005C0005D48012441682143416041682140009118
:1005D0000099210702680A43026000680140009107
:1005E0000098564801680902090AC02212060A4307
:1005F000026000F043F800F02BF900F06DF900F014
:10060000FDF900F083FA002040490862EFF3108002
:10061000012181F310884A490A68202313430B60A3
:1006200080F31088EFF31080012282F310888A682B
:1006300022438A6080F310884248416CE2030A43F7
:100640004264016821430160016A820C0A4302622C
:10065000C16802220A43C2603B480168214301602D
:10066000C1680C43C46000F098FA00F0B3FA00F0DF
:10067000A8FA804700F0C3FA8047F8E710B533487E
:100680000168820D0A43026001684905FCD5816852
:100690002F4A0A4082608168072291438160382195
:1006A00082680A40FCD181682A4A0A4082601C4C58
:1006B000200000F0BFFA200000F0C9FA10BD10B50C
:1006C00025480068114CA16AC2B2402A06D101290E
:1006D00002DD224800F066FA002101E06054491C66
:1006E000A16210BD10B41E4801680F4A1023CC0F40
:1006F0006418641064000C1B01D1136000E01361E6
:10070000491C016010BC7047000000000000002080
:10071000A08601001027000011270000FF0F000035
:100720000024F400282C01401800005000E1F505D9
:100730008096980040420F003C10024020ED00E0FF
:1007400000380140002C0140002000400010024011
:10075000FFF0FFFFFF8FFFFF24380140AD040008CA
:10076000C00000200022030A8B420BD203098B42F7
:1007700019D243088B422ED2411A00D2014652416F
:1007800010467047FF2209023FD012068B4205D364
:10079000121209028B4201D31212090203098B4281
:1007A00019D300E0090AC3098B4201D3CB01C01A57
:1007B000524183098B4201D38B01C01A5241430934
:1007C0008B4201D34B01C01A524103098B4201D322
:1007D0000B01C01A5241C3088B4201D3CB00C01A8F
:1007E000524183088B4201D38B00C01A5241430807
:1007F0008B4201D34B00C01A5241884200D3401AA9
:100800005241CFD201461046704708B5C046C04697
:1008100008BD30B501684118446862088A188368C9
:10082000E40704D54C461B1901E0641C09D1914230
:1008300003D00C7864B2491C01E00C3030BD0D7857
:10084000491C1D705B1C002CEFD4641EF7D5EEE72D
:10085000F0B587B018220021684600F0FFF90220A9
:100860001C490A6802430A600A681040069006980C
:100870000124086820430860086820400690069814
:100880001020A021C905886280278F6206028E622F
:100890000090019400250295039504956946A020D7
:1008A000C00500F0E5F900970194029403950495C2
:1008B0006946A020C00500F0DBF90096019402947F
:1008C000039504956946A020C00500F0D1F907B052
:1008D000F0BD00BF3410024078B58FB02022002157
:1008E00007A800F0BBF918220021684600F0B6F90D
:1008F0003A48016A0322914301628021C901C2681A
:100900000A43C260C2681140069106990224016838
:1009100021430160006820400690069880200090E6
:100920000194002502950395049505952C4E694682
:10093000300000F09DF9402000900194029503954D
:10094000049505956946300000F092F92548016844
:100950000902090A0160A00623490860079596204C
:100960008001089009950A950B950C200C900D9527
:100970000E951E4C07A9200000F0CEF9EFF3108071
:10098000012181F31088A168C900C908A16080F322
:100990001088EFF31080012181F31088A168144AB8
:1009A0000A40A26080F3108820681249014021604B
:1009B0006068114901406160A0682A218843A060F5
:1009C0002068012101432160E0698002FCD5E069D3
:1009D0004102C90FF8D010B070BD00BF3410024002
:1009E0000004005018E400E000E100E0003801409D
:1009F000FFFFFFF1FFFFFFDFFFB7FFFFF8B5A0B07C
:100A00001422002107A800F029F92022002118A8AB
:100A100000F024F9302200210CA800F01FF9524EFA
:100A2000306A5249014031621822002101A800F0C9
:100A300015F9F70CF0683843F060F0683840009022
:100A400000984B4801684B4A0A400260F8004A4946
:100A500008600720694688830024089409200990CB
:100A60000A940B94454D07A92800FFF729FB286835
:100A7000802188432860E8693843E8616020189045
:100A800019941A94C8201B901C941E941F9418AAA1
:100A900049012800FFF75CFBE869290D0143E96182
:100AA00068687021884368606868354901406960FA
:100AB000A86880218843A8600C940D940E940CA81B
:100AC0000473C4818801109011941294139400034C
:100AD00014901594169417940CA92800FFF796FC0F
:100AE0000120316801433160316801400091009973
:100AF000019702210291039004940594069101A9A3
:100B0000A020C00500F0B4F821B0F0BD10B586B04B
:100B10001422002101A800F0A1F880200002194948
:100B20000A6802430A600968084000900098164865
:100B300001680902090A0160802000030E4908606B
:100B40001248694688800020029011490391049060
:100B5000104C01A92000FFF7B3FA2068802101435F
:100B6000216006B010BD000034100240FFFFBFFF3F
:100B70000CE400E0FFFF00FF00E100E0002C01407A
:100B8000FFFF0FFF4010024010E400E07F3E000036
:100B9000E703000000200040704722480021016068
:100BA000416070471F490A68521CD3101B0F9B18E5
:100BB0001B111B01D21A4B689A4201D101207047C8
:100BC0000DE018494A680868904201D116487047FC
:100BD0001CE07047154800210160416070470A68B9
:100BE000531C0B6092008A1890600868C210120FA4
:100BF000121812111201801A0860002070470B4968
:100C00004A680868904201D1094870479000081866
:100C10008068521CD3101B0F9B181B111B01D21A8A
:100C20004A60704730000020990B000878000020CF
:100C3000D30B000810B5074CFA218900FFF792FD8D
:100C4000401E60600020A0600520206010BD0249A9
:100C50000860704710E000E02C00002010B5040090
:100C6000080011000200200000F0C6F8200010BDAE
:100C7000F8B404000800002146E02E0A3500754350
:100C800075437543666A2F017F1BBE43009F7D43FA
:100C90003543656231E001258D40154033D02A008F
:100CA0006A4353009E18F3434668012E01D0022E7A
:100CB0000BD1A6681E40876857433743A760666814
:100CC000AE43C7686F4337436760E6681E400769F5
:100CD00057433743E7604668022E0ED146690096B7
:100CE000FF2DCAD816006E436E43256A3701BF1B1D
:100CF000BD43009F7E432E43266225682B404568F6
:100D00006A431A432260491C02681300CB40C2D1D7
:100D10000020F2BC7047FEE7F0B583B0040001206C
:100D200001252268104055D10E0020682D49014050
:100D3000B06808433169014370690843F1690143B0
:100D40002160606828490140F06808436060A0683D
:100D500026490140B0690843A0602048844203D17D
:100D6000032000F086F806E01D4884422BD1684637
:100D700000F06AF80298002825D07768002F22D06A
:100D8000002531680C291ED2194A0906890D5158CF
:100D9000FFF7E8FC7908F26980231B029A420CD124
:100DA000400040183900FFF7DDFC80B211490140D6
:100DB0000007400F0143E16005E040183900FFF7EC
:100DC000D1FC80B2E060E06A0F218843316889B2CB
:100DD0000843E062280003B0F0BD00000038014085
:100DE00000440040F369FFEFFFCFFFFFFFFCFFFF70
:100DF00048100008F0FF00001206130A1A43130CF3
:100E00001A4300BF094205D0830705D00270401C79
:100E1000491EF9D1704700001300103906D330B4D1
:100E20001400150010393CC0FCD230BC490700D377
:100E30000CC000D504C0890002D30280801C0029A8
:100E400000D502707047FEE710B5040000F057F8B7
:100E50002060244801682068254A0905090F890097
:100E6000515CC906C90EC840606000F073F8A0600C
:100E700010BD01000020032900D0704710B5184CA8
:100E8000616D8907890FC02292020A431649521ADE
:100E900004D0521E05D0521E08D00DE000F02FF8ED
:100EA00010BD216849051AD5104810BDE16D8907AC
:100EB00015D58020000210BD00F021F8A368A168BC
:100EC0001F220B4C1B051B0F9B00E3581340D840FF
:100ED000084B4904490F890059580A40D04010BDB9
:100EE0000010024008100240010003000024F4003A
:100EF000CC0F0008C0100008FFF734FC10BD10B57F
:100F00001A49886838220240082A02D0102A02D0E2
:100F100017E00F4810BDC8688007800F032801D173
:100F20000B4800E01248CA68CB68CC685104490EEF
:100F300048435906490F491CFFF714FC610F491C2F
:100F400005E00A680A4801219204520F9140D3E754
:100F500000127A0007490968074A4904490F8900C5
:100F6000515CC906C90EC84070470000001002401D
:100F70000024F40008100240C0100008FEE7FEE75D
:100F80007047704770470B480221C94301600A4906
:100F90000A68002A02D0521E0A607047074901639E
:100FA000704780B5FFF79EFB0120C04304490860ED
:100FB00001BD0000102C014020000020FFFF0000B8
:100FC0001020004080B5FFF77AFB01BD0000000053
:100FD0000000000000000000000000000000000011
:100FE0000000000000000000000000000100000000
:100FF00002000000030000000400000006000000E2
:1010000007000000080000000900000070B4012380
:10101000002413E00168001D194202D04D466918F2
:10102000491E0C60091D121F042AFAD20D009607F2
:1010300001D50C80AD1C1A4000D02C700268001D38
:10104000002AE7D170BC70470100000002000000D8
:101050000400000006000000080000000A00000074
:101060000C00000010000000200000004000000004
:10107000800000000001000010B5074979441831D4
:10108000064C7C44163404E0081D0A688918884719
:101090000100A142F8D110BD0800000024000000AA
:1010A0006DFFFFFF940000003000002000000000F2
:1010B00063F7FFFFCE0000001E00000000000020CC
:1010C0000000000000000000000000000000000020
:1010D0000100000002000000030000000400000006
:1010E0000120C046002801D0FFF7C6FF00BF00BFA7
:1010F000002000BF00BFFFF762FA00F000F880B5E3
:1011000000F002F801BDFEE70746384600F002F89D
:10111000FBE7FEE780B500BF00BF024A11001820C0
:10112000ABBEFBE7260002000548014603B4684653
:1011300080F3098800BF00BF00BF00BFFFF7D0FFEA
:10114000A5EDF5FE014880470148004781110008E0
:1011500029110008FEE7FEE7FEE7FEE7FEE7FEE7EF
:10116000FEE7FEE7FEE7FEE7FEE7FEE7FEE7FEE757
:10117000FEE7FEE7FEE7FEE7FEE7FEE7FEE700002C
:101180007047E00005404B4C00E803F9000224F4EE
:01119000005E
:0400000508001129B5
:00000001FF
